:100000000C94B1000C947E010C9495010C94ED03BA
:100010000C94CE000C9408040C94CE000C94CE00EA
:100020000C94CE000C94CE000C94CE000C94CE0018
:100030000C94AC010C94CE000C94CE000C94CE0029
:100040000C94CE000C94CE000C94CE000C94CE00F8
:100050000C94CE000C94CE000C94CE000C94CE00E8
:100060000C94CE000C94CE0000407A10F35A00A0FD
:10007000724E18090010A5D4E80000E87648170071
:1000800000E40B54020000CA9A3B000000E1F505B1
:10009000000080969800000040420F000000A086FB
:1000A00001000000102700000000E803000000002D
:1000B0006400000000000A000000000001000000D1
:1000C00000002C76D888DC674F0823DFC1DFAE59EB
:1000D000E1B1B796E5E3E453C63AE651997696E87E
:1000E000E6C28426EB898C9B62ED407C6FFCEFBC02
:1000F0009C9F40F2BAA56FA5F490055A2AF75C932D
:100100006B6CF9676DC11BFCE0E40D47FEF520E662
:10011000B500D0ED902E0300943577050080841E45
:10012000080000204E0A000000C80C333333330FA0
:10013000986E12831141EF8D2114893BE65516CF3D
:10014000FEE6DB18D1844B381BF77C1D901DA4BB49
:10015000E424203284725E228100C9F124ECA1E5FE
:100160003D2711241FBECFEFD8E0DEBFCDBF11E089
:10017000A0E0B1E0EAE7F1E102C005900D92A631FE
:10018000B107D9F721E0A6E1B1E001C01D92A83284
:10019000B207E1F70E945F020C94BB080C940000C8
:1001A00088E48093B80084E08093BC00089584EADA
:1001B0008093BC008091BC008823E4F7089584E913
:1001C0008093BC0008958093BB0084E88093BC00BA
:1001D0008091BC008823E4F70895CF93DF93EC016E
:1001E0000E94D7008EE490E00E94E300CE018C6074
:1001F0000E94E3000000CE018B7F88600E94E30034
:1002000081E28A95F1F700000E94DF00DF91CF9133
:100210000895CF93962F907F982B20E1629FB00195
:100220001124C82FC62B892F90E00E94ED008C2F3F
:1002300090E00E94ED00CF910895682F80E00E9429
:1002400009010895682F81E00E940901089583EC57
:1002500099E00197F1F700C0000083E00E941D01C2
:1002600081EE94E00197F1F700C0000083E00E9466
:100270001D0192E39A95F1F783E00E941D0182E04F
:100280000E941D0188E20E941D018CE00E941D0158
:1002900086E00E941D0181E00E941D0180E80E940D
:1002A0001D0183EF91E00197F1F700C00000089570
:1002B000CF93DF93EC0103C021960E942201888135
:1002C0008111FACFDF91CF9108958AB1837F8AB9E6
:1002D000E9E6F0E08081856080838DB383608DBB2B
:1002E00008958CE08093810081E19AE790938B00E0
:1002F00080938A0084E080936F0008951F920F928C
:100300000FB60F9211248F939F93809120019091AB
:100310002101019690932101809320019F918F915B
:100320000F900FBE0F901F9018951F920F920FB64F
:100330000F9211248F939F9380911E0190911F0122
:10034000019690931F0180931E019F918F910F90B2
:100350000FBE0F901F9018951F920F920FB60F921D
:1003600011242F933F934F935F936F937F938F93BA
:100370009F93AF93BF93EF93FF9360912001709190
:10038000210180E090E00E940F0520E030E040EA8B
:1003900051E40E949D0424ED37EB48E850E40E94AC
:1003A0009D059B01AC010E94310460931A0170937A
:1003B0001B0180931C0190931D0160911E0170919F
:1003C0001F0180E090E00E940F0520E030E040EA4D
:1003D00051E40E949D0424ED37EB48E850E40E946C
:1003E0009D059B01AC010E9431046093160170933E
:1003F0001701809318019093190110922101109216
:10040000200110921F0110921E01FF91EF91BF91E8
:10041000AF919F918F917F916F915F914F913F919C
:100420002F910F900FBE0F901F90189584B182608E
:1004300084B9E0E8F0E0808180648083E1E8F0E066
:1004400080818C60808381E19AE79093890080931A
:100450008800089584B1806184B984B18F7D84B9A6
:10046000089585B18F7E85B900C085B1806185B959
:1004700023E02A95F1F7000085B18F7E85B91D9B99
:10048000FECF80E090E006C000000196813325E7B2
:10049000920744F41D99F8CF6AE370E00E940A06BF
:1004A000CB01089580E090E0089585B18F7E85B9F5
:1004B00087EA91E60197F1F700C000000895CF9315
:1004C000DF93CDB7DEB7A0970FB6F894DEBF0FBEAF
:1004D000CDBF0E94D7030E9416020E9491030E9482
:1004E000D0000E9427010E9465010E9471010E94B4
:1004F0002A0278940E9431028C01892B11F40E9407
:100500005502C8010197099768F460E070E080E047
:1005100090E00E94A10360E070E080E090E00E9423
:10052000BC03C8C00A5011090B30110568F462E819
:1005300070E081E090E00E94A10362E870E081E059
:1005400090E00E94BC03B6C08091220190912301EB
:10055000019761F48091240190912501892B31F458
:1005600080912601909127010197B1F1809122019C
:1005700090912301892B61F48091240190912501B0
:10058000892B31F48091260190912701892B21F14B
:100590008091220190912301892B61F480912401A3
:1005A00090912501892B31F48091260190912701AA
:1005B000019791F080912201909123010197C9F454
:1005C0008091240190912501892B99F48091260135
:1005D00090912701892B69F465EA70E081E090E051
:1005E0000E94BC0365EA70E081E090E00E94A103F4
:1005F00061C08091220190912301892B61F4809147
:10060000240190912501019731F480912601909168
:100610002701019791F08091220190912301892B6C
:10062000C9F48091240190912501892B99F480913E
:10063000260190912701019769F465EA70E081E055
:1006400090E00E94BC0360E070E080E090E00E94D7
:10065000A10330C08091220190912301019761F4A0
:100660008091240190912501019731F48091260118
:1006700090912701892B91F0809122019091230183
:100680000197C1F48091240190912501892B91F467
:100690008091260190912701892B61F460E070E040
:1006A00080E090E00E94BC0365EA70E081E090E0A9
:1006B0000E94A10380E80E941D0180E091E00E9459
:1006C000580160911A0170911B0180911C01909159
:1006D0001D018E010F5F1F4F22E045E00E94320690
:1006E0006091160170911701809118019091190184
:1006F000005F1F4F22E045E00E94320680EC0E941E
:100700001D0180E191E00E945801CE0101960E94F6
:10071000580182E191E00E945801C8010E945801ED
:10072000E9CE87B18C6087B984B1846084B98AB11D
:1007300082668AB984B5836A84BD85B5816085BDCA
:1007400008958130910539F488B1886088B985B100
:100750008B7F85B90FC0019639F488B1877F88B93E
:1007600085B1846085B906C088B1877F88B985B1B5
:100770008B7F85B967BD08958130910539F48BB1C0
:1007800082608BB988B18B7F88B90FC0019639F42C
:100790008BB18D7F8BB988B1846088B906C08BB16D
:1007A0008D7F8BB988B18B7F88B968BD089584B17E
:1007B0008E7F84B98AB18E778AB9E8E6F0E08081CD
:1007C00085608083EBE6F0E0808181608083EDE6E8
:1007D000F0E080818168808308951F920F920FB6A8
:1007E0000F9211248F939F93189B07C081E090E094
:1007F000909323018093220104C010922301109250
:1008000022019F918F910F900FBE0F901F9018950E
:100810001F920F920FB60F9211248F939F93489BB4
:1008200007C081E090E0909325018093240104C0EB
:1008300010922501109224014F9B07C081E090E0A7
:10084000909327018093260104C0109227011092F3
:1008500026019F918F910F900FBE0F901F901895BA
:100860005058BB27AA270E9448040C9463050E9495
:10087000550538F00E945C0520F039F49F3F19F4CB
:1008800026F40C9452050EF4E095E7FB0C944C050D
:10089000E92F0E94740558F3BA176207730784079B
:1008A000950720F079F4A6F50C9496050EF4E095E2
:1008B0000B2EBA2FA02D0B01B90190010C01CA011A
:1008C000A0011124FF27591B99F0593F50F4503EC5
:1008D00068F11A16F040A22F232F342F4427585FB7
:1008E000F3CF469537952795A795F0405395C9F7CF
:1008F0007EF41F16BA0B620B730B840BBAF0915087
:10090000A1F0FF0FBB1F661F771F881FC2F70EC025
:10091000BA0F621F731F841F48F4879577956795F8
:10092000B795F7959E3F08F0B0CF9395880F08F0E4
:100930009927EE0F9795879508950E94B1040C941E
:1009400063050E945C0558F00E94550540F029F4AB
:100950005F3F29F00C944C0551110C9497050C94B1
:1009600052050E94740568F39923B1F3552391F35E
:10097000951B550BBB27AA2762177307840738F00E
:100980009F5F5F4F220F331F441FAA1FA9F335D06B
:100990000E2E3AF0E0E832D091505040E695001C1F
:1009A000CAF72BD0FE2F29D0660F771F881FBB1FD9
:1009B000261737074807AB07B0E809F0BB0B802DB7
:1009C000BF01FF2793585F4F3AF09E3F510578F0E3
:1009D0000C944C050C9497055F3FE4F3983ED4F3D8
:1009E000869577956795B795F7959F5FC9F7880FB7
:1009F000911D9695879597F90895E1E0660F771F09
:100A0000881FBB1F621773078407BA0720F0621B99
:100A1000730B840BBA0BEE1F88F7E0950895E894EA
:100A200009C097FB3EF490958095709561957F4F36
:100A30008F4F9F4F9923A9F0F92F96E9BB279395E4
:100A4000F695879577956795B795F111F8CFFAF4F4
:100A5000BB0F11F460FF1BC06F5F7F4F8F4F9F4F25
:100A600016C0882311F096E911C0772321F09EE883
:100A7000872F762F05C0662371F096E8862F70E0E9
:100A800060E02AF09A95660F771F881FDAF7880FC3
:100A90009695879597F9089597F99F6780E870E094
:100AA00060E008959FEF80EC089500240A941616E4
:100AB000170618060906089500240A94121613064C
:100AC000140605060895092E0394000C11F48823DA
:100AD00052F0BB0F40F4BF2B11F460FF04C06F5FF6
:100AE0007F4F8F4F9F4F089557FD9058440F551FCC
:100AF00059F05F3F71F04795880F97FB991F61F0A0
:100B00009F3F79F087950895121613061406551F16
:100B1000F2CF4695F1DF08C0161617061806991F82
:100B2000F1CF86957105610508940895E894BB2777
:100B300066277727CB0197F908950E94B0050C949A
:100B400063050E94550538F00E945C0520F095234E
:100B500011F00C944C050C94520511240C9497053B
:100B60000E94740570F3959FC1F3950F50E0551FD7
:100B7000629FF001729FBB27F00DB11D639FAA27F2
:100B8000F00DB11DAA1F649F6627B00DA11D661F41
:100B9000829F2227B00DA11D621F739FB00DA11D62
:100BA000621F839FA00D611D221F749F3327A00D1C
:100BB000611D231F849F600D211D822F762F6A2FB8
:100BC00011249F5750409AF0F1F088234AF0EE0F1D
:100BD000FF1FBB1F661F771F881F91505040A9F74A
:100BE0009E3F510580F00C944C050C9497055F3F97
:100BF000E4F3983ED4F3869577956795B795F79586
:100C0000E7959F5FC1F7FE2B880F911D96958795FD
:100C100097F9089597FB072E16F4009407D077FDF7
:100C200009D00E941E0607FC05D03EF490958195E0
:100C30009F4F0895709561957F4F0895AA1BBB1B28
:100C400051E107C0AA1FBB1FA617B70710F0A61BCC
:100C5000B70B881F991F5A95A9F780959095BC01ED
:100C6000CD010895EF920F931F93CF93DF93E80187
:100C700047FD02C034E001C034E1042E000C550BE6
:100C800057FF03C0519541955109E32E022F242FA0
:100C9000AE010E945206CE01DF91CF911F910F91BC
:100CA000EF900895A9E0B0E0E8E5F6E00C948A083A
:100CB0006A01122FB02E2BE3201720F0FF24F394AB
:100CC000F00E02C02CE3F22E0F2D27E0AE014F5F95
:100CD0005F4F0E94AC07BC014981842F897081302D
:100CE00031F0E1FC06C0E0FE06C090E205C09DE2E6
:100CF00003C09BE201C090E05E2D507143FF3CC0F9
:100D0000911102C083E001C084E0811718F4212F03
:100D1000281B01C020E051110BC0F601822F30E2E8
:100D2000882319F031938150FBCFC20ED11C20E0F3
:100D3000992329F0D6019C93F60131966F01C601E3
:100D40000396E2FE0AC03EE4D6013C9341E41196CC
:100D50004C93119712963C9306C03EE6F601308301
:100D600041E641833283FC01322F40E2332309F410
:100D700042C041933150FACF42FF44C0911102C0AA
:100D800083E001C084E0811718F4212F281B01C0E3
:100D900020E051110BC0F601822F30E2882319F0B8
:100DA00031938150FBCFC20ED11C20E0992329F052
:100DB000D6019C93F60131966F01C6010396E2FEBF
:100DC0000BC039E4D6013C933EE411963C93119755
:100DD00036E412963C9307C039E6F60130833EE6CE
:100DE000318336E63283FC01322F40E2332319F09F
:100DF00041933150FBCFFC01E20FF11D10828EEFC9
:100E00009FEFA6C021E030E0911102C020E030E069
:100E1000161617061CF4FB01319602C0E1E0F0E063
:100E20002E0F3F1FBB2021F0EB2DF0E0319602C0CA
:100E3000E0E0F0E02E0F3F1FE12FF0E02E173F071C
:100E40001CF4121B212F01C020E08E2D887159F453
:100E5000F601822F30E2882319F031938150FBCFC5
:100E6000C20ED11C20E0992329F0D6019C93F601F3
:100E700031966F0151110BC0F601822F90E3882348
:100E800019F091938150FBCFC20ED11C20E00F2DA1
:100E9000060F9A81342F307144FF03C0913309F457
:100EA0000150101624F4093018F008E001C001E0E8
:100EB000AB0177FF02C040E050E0FB01E41BF50B03
:100EC000A1E0B0E0AC0FBD1FEA0FFB1F8EE2A82E21
:100ED0004B01801A91080B2D10E011950195110915
:100EE0004F3FBFEF5B0721F4D601AC9211966D0125
:100EF000641775072CF08416950614F4818101C0DF
:100F000080E3415051093196D60111967D01401779
:100F1000510724F0D6018C936701E2CF641775075F
:100F200039F4963320F4953319F4311101C081E37B
:100F3000F6018083F701822F90E2882319F09193C4
:100F40008150FBCFF701E20FF11D108280E090E0AD
:100F50002996ECE00C94A608283008F027E0332707
:100F6000DA01990F311D87FD9160009661057105C9
:100F700039F432602E5F3D9330E32A95E1F708950E
:100F80009F3F30F080387105610509F03C5F3C5FA0
:100F90003D93913008F08068911DDF93CF931F93AC
:100FA0000F93FF92EF92192F987F9695E92F9695C0
:100FB0009695E90FFF27EE53FF4F99273327EE242D
:100FC000FF24A701E70105900894079428F4360F41
:100FD000E71EF81E491F511D660F771F881F991FB6
:100FE0000694A1F70590079428F4E70EF81E491F10
:100FF000561FC11D770F881F991F661F0694A1F702
:101000000590079428F4F80E491F561FC71FD11DDD
:10101000880F991F661F771F0694A1F70590079404
:1010200020F4490F561FC71FD81F990F661F771F3F
:10103000881F0694A9F784911095177041F0D695F2
:10104000C79557954795F794E7941A95C1F7E8E641
:10105000F0E0689415901591359165919591059002
:101060007FE27395E118F10A430B560BC90BD009C7
:10107000C0F7E10CF11E431F561FC91FD01D7EF49F
:10108000703311F48A95E6CFE894015030F0080FE0
:101090000AF40027021708F4202F2395022F7A3331
:1010A00028F079E37D932A95E9F710C07D932A957E
:1010B00089F6069497956795379517951794E118D3
:1010C000F10A430B560BC90BD00998F023957E917A
:1010D00073957A3308F070E37C932013B8F77E9110
:1010E00070617D9330F0839571E37D9370E32A9571
:1010F000E1F71124EF90FF900F911F91CF91DF91B5
:10110000992787FD909508952F923F924F925F9275
:101110006F927F928F929F92AF92BF92CF92DF9207
:10112000EF92FF920F931F93CF93DF93CDB7DEB76C
:10113000CA1BDB0B0FB6F894DEBF0FBECDBF099400
:101140002A88398848885F846E847D848C849B8457
:10115000AA84B984C884DF80EE80FD800C811B8165
:10116000AA81B981CE0FD11D0FB6F894DEBF0FBE94
:0A117000CDBFED010895F894FFCF04
:10117A0056656C6F63696461646520636D2F7300E3
:06118A004C0020520000A1
:00000001FF
